:100000000C942A000C949A040C94C6040C94F204E8
:100010000C9447000C9447000C9447000C94470044
:100020000C9447000C9447000C9447000C94470034
:100030000C9447000C9447000C9447000C94470024
:100040000C9447000C9447000C9447000C94470014
:100050000C94470011241FBECFE5D8E0DEBFCDBF12
:1000600010E0A0E6B0E0E0E4FAE002C005900D92F6
:10007000A639B107D9F720E0A6E9B0E001C01D928A
:10008000AF39B207E1F70E9497000C941E050C945B
:10009000000040E06091980088E690E00E94D20164
:1000A000809396006CE770E088E690E00E94B201D1
:1000B0008093960061E080919800811160E06093E8
:1000C000980040E088E690E00E94D201809396007C
:1000D00060E088E690E00E946D01809396000895AC
:1000E0004FE06091970088E690E00E94D2018093F3
:1000F00096006CE770E088E690E00E94B201809381
:10010000960061E080919700811160E06093970014
:100110004FE088E690E00E94D2018093960060E074
:1001200088E690E00E946D0180939600089588E62D
:1001300090E00E94390240E050E062E083E00E94DB
:10014000ED0240E050E063E083E00E94ED0284E6CF
:1001500090E00E94830480E690E00E9483040AE01D
:1001600020E040E06EE770E088E690E00E94E40165
:1001700020E041E066E870E088E690E00E94E4015B
:1001800006E020E042E06EE870E088E690E00E9441
:10019000E40140E06091980088E690E00E94D2017E
:1001A00060E088E690E00E946D01809396004FE049
:1001B0006091970088E690E00E94D20160E088E6B6
:1001C00090E00E946D018093960041E061E088E636
:1001D00090E00E94D2018093960061E088E690E072
:1001E0000E946D018093960043E061E088E690E014
:1001F0000E94D2018093960062E088E690E00E941F
:100200006D01FFCFCF93DF93009711F1EC016B816C
:100210006695669566956F708A814FEF87700E942C
:1002200043038FEC97E00197F1F700C000006B816A
:100230006695669566956F708A8140E087700E942A
:100240004303EFECF7E03197F1F700C0000001C085
:1002500081E0DF91CF9108951F93CF93DF930097B3
:10026000B9F1162FEC018A81682F6695669566951F
:100270006F7040E087700E9443038A81982F991F16
:100280009927991F6B816770660F692B40E0877013
:100290000E9443039881892F8695612F90FF04C0A7
:1002A00087700E94A7030EC062956F7087700E94CE
:1002B000BD03CE010E94020188818695612F87705F
:1002C0000E94BD03CE01DF91CF911F910C940201DA
:1002D00081E0DF91CF911F9108951F93CF93DF931A
:1002E0000097D9F1162FEC018A81682F66956695E3
:1002F00066956F704FEF87700E9443038A81982F35
:10030000991F9927991F6B816770660F692B40E0D1
:1003100087700E9443039881892F8695612F90FFF3
:1003200004C087700E94A7030EC062956F7087702B
:100330000E94BD03CE010E94020188818695612F33
:1003400087700E94BD03CE010E940201EFECF7E02E
:100350003197F1F700C0000001C081E0DF91CF913B
:100360001F910895EF92FF921F93CF93DF93009711
:1003700091F06115710579F07B01EC0110E080E0EE
:10038000F701E10FF11D6081662331F0CE010E947B
:100390006D011F5FF5CF81E0DF91CF911F91FF903D
:1003A000EF900895009771F0623048F4403138F4CE
:1003B000611102C060E801C060EC640F01C060E838
:1003C0000C942C0181E00895DF92EF92FF920F933D
:1003D0001F93CF93DF930097A9F16115710591F1F8
:1003E000122F7B01EC01642F660F660F660F605CB5
:1003F0000E942C018FEC97E00197F1F700C00000FC
:10040000D12C8D2D90E0F70101900020E9F7319774
:10041000EE19FF098E179F0748F4F701E80FF91F3F
:100420006081CE010E946D01D394EBCF402F612FEC
:10043000CE01DF91CF911F910F91FF90EF90DF9050
:100440000C94D20181E0DF91CF911F910F91FF9029
:10045000EF90DF900895009751F061E00E942C0129
:10046000EFE0F7E23197F1F700C00000089581E076
:100470000895CF93DF93009709F4ABC0EC012FE709
:1004800088E391E0215080409040E1F700C00000F7
:100490008A81682F6695669566956F704FEF50E07C
:1004A00087700E94ED028A81982F991F9927991FC2
:1004B0006B816770660F692B4FEF50E087700E9469
:1004C000ED026B816695669566956F708A814FEF38
:1004D00050E087700E94ED029881892F869590FFE9
:1004E00011C06FEF70E087700E94740362E0CE016C
:1004F0000E942C01EFECF7E03197F1F700C000000B
:1005000068E346C099814FEF50E09F30D1F460E03E
:1005100087700E94ED02888186954FEF50E061E080
:1005200087700E94ED02888186954FEF50E062E06F
:1005300087700E94ED02888186954FEF50E063E05E
:1005400019C064E087700E94ED02888186954FEFA4
:1005500050E065E087700E94ED02888186954FEF3C
:1005600050E066E087700E94ED02888186954FEF2B
:1005700050E067E087700E94ED0262E0CE010E94C9
:100580002C01EFECF7E03197F1F700C0000068E2D2
:10059000CE010E942C018FEC97E00197F1F700C08B
:1005A00000006CE0CE010E942C01EFECF7E03197E7
:1005B000F1F700C00000CE010E942B0266E0CE01E0
:1005C0000E942C01EFECF7E03197F1F700C000003A
:1005D00001C081E0DF91CF910895843008F051C0CF
:1005E000683008F04EC04F3F510591F4E82FF0E01D
:1005F000EE0FFF1FE459FF4F0190F081E02D2081A5
:1006000081E090E001C0880F6A95EAF7822B15C05F
:1006100041155105A1F4E82FF0E0EE0FFF1FE4595A
:10062000FF4F0190F081E02D208181E090E001C03A
:10063000880F6A95EAF780958223808320C0411550
:100640005140F9F490E0880F991FFC01E459FF4FE5
:100650000190F081E02D408121E030E001C0220FC7
:100660006A95EAF7322F309534233083FC01EC5839
:10067000FF4F0190F081E02D8081282B208380E0C6
:10068000089581E00895843068F5683058F54F3F4B
:1006900091F4E82FF0E0EE0FFF1FEC58FF4F0190B0
:1006A000F081E02D208181E090E001C0880F6A9503
:1006B000EAF7822B14C0411115C0E82FF0E0EE0FCD
:1006C000FF1FEC58FF4F0190F081E02D208181E069
:1006D00090E001C0880F6A95EAF7809582238083B5
:1006E00080E0089581E00895843078F56F3F7105CA
:1006F00039F4E82FF0E0EE0FFF1FE459FF4F1EC062
:100700006115710559F4E82FF0E0EE0FFF1FE45971
:10071000FF4F0190F081E02D108215C061157140EE
:10072000A1F490E0880F991FFC01E459FF4F01905C
:10073000F081E02D1082FC01EC58FF4F0190F08118
:10074000E02D8FEF808380E0089581E0089584306C
:1007500090F490E0880F991FFC01EC58FF4F019036
:10076000F081E02D6F3F29F0611103C0108280E01D
:1007700008956083FCCF81E008958430A8F4E82FC9
:10078000F0E0EE0FFF1FEC58FF4FA081B1818C917C
:100790008F708C930190F081E02D80816295607F55
:1007A000682B608380E0089581E00895009789F0C8
:1007B000FC0120818BEF820F833058F43BB781E03E
:1007C00090E001C0880F2A95EAF7832B8BBF80E069
:1007D000089581E008959AB721E030E001C0220F2A
:1007E0008A95EAF7209529232ABF0895FC01892BD1
:1007F000E1F08081863059F0873081F08530B9F49E
:100800008181928190939E0080939D0010C0818190
:10081000928190939A008093990009C0818192817E
:1008200090939C0080939B0002C081E0089580E03B
:100830000895009709F465C0FC013381343008F055
:1008400060C020818AEF820F823008F04CC0282FD0
:10085000220F822F90E0323031F1333081F131308C
:1008600061F035B741E050E0BA0101C0660F2A954A
:10087000EAF7262F209523230BC065B741E050E00F
:10088000FA0102C0EE0FFF1F2A95E2F79F01262B07
:1008900025BF25B7019601C0440F8A95EAF7409518
:1008A000422345BF2CC035B741E050E0BA0101C03A
:1008B000660F2A95EAF7262F209523230BC065B7EC
:1008C00041E050E0FA0102C0EE0FFF1F2A95E2F767
:1008D0009F01262B25BF25B7019601C0440F8A959D
:1008E000EAF7422BDECF253061F4323029F0333085
:1008F00041F485B7806402C085B78F7B85BF80E0F7
:10090000089581E00895CF93DF93009779F0EC018B
:100910008FB780688FBFCE010E94D603CE010E94A0
:10092000F603CE01DF91CF910C94190481E0DF91A1
:10093000CF9108951F920F920FB60F9211242F930B
:100940003F934F935F936F937F938F939F93AF9357
:10095000BF93EF93FF93E0919900F0919A00309745
:1009600021F0099586E00E94EB03FF91EF91BF9182
:10097000AF919F918F917F916F915F914F913F9137
:100980002F910F900FBE0F901F9018951F920F92EE
:100990000FB60F9211242F933F934F935F936F9352
:1009A0007F938F939F93AF93BF93EF93FF93E091C8
:1009B0009B00F0919C00309721F0099587E00E9400
:1009C000EB03FF91EF91BF91AF919F918F917F9139
:1009D0006F915F914F913F912F910F900FBE0F90AC
:1009E0001F9018951F920F920FB60F9211242F93FC
:1009F0003F934F935F936F937F938F939F93AF93A7
:100A0000BF93EF93FF93E0919D00F0919E0030978C
:100A100021F0099585E00E94EB03FF91EF91BF91D2
:100A2000AF919F918F917F916F915F914F913F9186
:100A30002F910F900FBE0F901F901895F894FFCF35
:100A4000077000000649000004F082103A003700E9
:100A5000340031003B0038003500320020000E0E1B
:100A60000E0E0E0E0E000000000E1F1F0E000E1FB9
:060A70001F0E0000000053
:00000001FF
